{
  "contractName": "GDPRCash",
  "abi": [
    {
      "constant": true,
      "inputs": [],
      "name": "name",
      "outputs": [
        {
          "name": "",
          "type": "string"
        }
      ],
      "payable": false,
      "stateMutability": "view",
      "type": "function"
    },
    {
      "constant": false,
      "inputs": [
        {
          "name": "_spender",
          "type": "address"
        },
        {
          "name": "_value",
          "type": "uint256"
        }
      ],
      "name": "approve",
      "outputs": [
        {
          "name": "",
          "type": "bool"
        }
      ],
      "payable": false,
      "stateMutability": "nonpayable",
      "type": "function"
    },
    {
      "constant": true,
      "inputs": [],
      "name": "totalSupply",
      "outputs": [
        {
          "name": "",
          "type": "uint256"
        }
      ],
      "payable": false,
      "stateMutability": "view",
      "type": "function"
    },
    {
      "constant": false,
      "inputs": [
        {
          "name": "_crowdSaleAddr",
          "type": "address"
        },
        {
          "name": "_amountForSale",
          "type": "uint256"
        }
      ],
      "name": "setCrowdsale",
      "outputs": [],
      "payable": false,
      "stateMutability": "nonpayable",
      "type": "function"
    },
    {
      "constant": false,
      "inputs": [
        {
          "name": "_from",
          "type": "address"
        },
        {
          "name": "_to",
          "type": "address"
        },
        {
          "name": "_value",
          "type": "uint256"
        }
      ],
      "name": "transferFrom",
      "outputs": [
        {
          "name": "",
          "type": "bool"
        }
      ],
      "payable": false,
      "stateMutability": "nonpayable",
      "type": "function"
    },
    {
      "constant": true,
      "inputs": [],
      "name": "INITIAL_SUPPLY",
      "outputs": [
        {
          "name": "",
          "type": "uint256"
        }
      ],
      "payable": false,
      "stateMutability": "view",
      "type": "function"
    },
    {
      "constant": true,
      "inputs": [],
      "name": "decimals",
      "outputs": [
        {
          "name": "",
          "type": "uint8"
        }
      ],
      "payable": false,
      "stateMutability": "view",
      "type": "function"
    },
    {
      "constant": false,
      "inputs": [
        {
          "name": "_value",
          "type": "uint256"
        }
      ],
      "name": "burn",
      "outputs": [],
      "payable": false,
      "stateMutability": "nonpayable",
      "type": "function"
    },
    {
      "constant": true,
      "inputs": [],
      "name": "transferEnabled",
      "outputs": [
        {
          "name": "",
          "type": "bool"
        }
      ],
      "payable": false,
      "stateMutability": "view",
      "type": "function"
    },
    {
      "constant": true,
      "inputs": [],
      "name": "CROWDSALE_ALLOWANCE",
      "outputs": [
        {
          "name": "",
          "type": "uint256"
        }
      ],
      "payable": false,
      "stateMutability": "view",
      "type": "function"
    },
    {
      "constant": false,
      "inputs": [
        {
          "name": "_spender",
          "type": "address"
        },
        {
          "name": "_subtractedValue",
          "type": "uint256"
        }
      ],
      "name": "decreaseApproval",
      "outputs": [
        {
          "name": "",
          "type": "bool"
        }
      ],
      "payable": false,
      "stateMutability": "nonpayable",
      "type": "function"
    },
    {
      "constant": true,
      "inputs": [
        {
          "name": "_owner",
          "type": "address"
        }
      ],
      "name": "balanceOf",
      "outputs": [
        {
          "name": "balance",
          "type": "uint256"
        }
      ],
      "payable": false,
      "stateMutability": "view",
      "type": "function"
    },
    {
      "constant": true,
      "inputs": [],
      "name": "adminAddr",
      "outputs": [
        {
          "name": "",
          "type": "address"
        }
      ],
      "payable": false,
      "stateMutability": "view",
      "type": "function"
    },
    {
      "constant": true,
      "inputs": [],
      "name": "owner",
      "outputs": [
        {
          "name": "",
          "type": "address"
        }
      ],
      "payable": false,
      "stateMutability": "view",
      "type": "function"
    },
    {
      "constant": true,
      "inputs": [],
      "name": "crowdSaleAddr",
      "outputs": [
        {
          "name": "",
          "type": "address"
        }
      ],
      "payable": false,
      "stateMutability": "view",
      "type": "function"
    },
    {
      "constant": true,
      "inputs": [],
      "name": "symbol",
      "outputs": [
        {
          "name": "",
          "type": "string"
        }
      ],
      "payable": false,
      "stateMutability": "view",
      "type": "function"
    },
    {
      "constant": false,
      "inputs": [
        {
          "name": "_to",
          "type": "address"
        },
        {
          "name": "_value",
          "type": "uint256"
        }
      ],
      "name": "transfer",
      "outputs": [
        {
          "name": "",
          "type": "bool"
        }
      ],
      "payable": false,
      "stateMutability": "nonpayable",
      "type": "function"
    },
    {
      "constant": true,
      "inputs": [],
      "name": "crowdSaleAllowance",
      "outputs": [
        {
          "name": "",
          "type": "uint256"
        }
      ],
      "payable": false,
      "stateMutability": "view",
      "type": "function"
    },
    {
      "constant": true,
      "inputs": [],
      "name": "adminAllowance",
      "outputs": [
        {
          "name": "",
          "type": "uint256"
        }
      ],
      "payable": false,
      "stateMutability": "view",
      "type": "function"
    },
    {
      "constant": false,
      "inputs": [
        {
          "name": "_spender",
          "type": "address"
        },
        {
          "name": "_addedValue",
          "type": "uint256"
        }
      ],
      "name": "increaseApproval",
      "outputs": [
        {
          "name": "",
          "type": "bool"
        }
      ],
      "payable": false,
      "stateMutability": "nonpayable",
      "type": "function"
    },
    {
      "constant": true,
      "inputs": [
        {
          "name": "_owner",
          "type": "address"
        },
        {
          "name": "_spender",
          "type": "address"
        }
      ],
      "name": "allowance",
      "outputs": [
        {
          "name": "",
          "type": "uint256"
        }
      ],
      "payable": false,
      "stateMutability": "view",
      "type": "function"
    },
    {
      "constant": false,
      "inputs": [],
      "name": "enableTransfer",
      "outputs": [],
      "payable": false,
      "stateMutability": "nonpayable",
      "type": "function"
    },
    {
      "constant": false,
      "inputs": [
        {
          "name": "newOwner",
          "type": "address"
        }
      ],
      "name": "transferOwnership",
      "outputs": [],
      "payable": false,
      "stateMutability": "nonpayable",
      "type": "function"
    },
    {
      "constant": true,
      "inputs": [],
      "name": "ADMIN_ALLOWANCE",
      "outputs": [
        {
          "name": "",
          "type": "uint256"
        }
      ],
      "payable": false,
      "stateMutability": "view",
      "type": "function"
    },
    {
      "inputs": [
        {
          "name": "_admin",
          "type": "address"
        }
      ],
      "payable": false,
      "stateMutability": "nonpayable",
      "type": "constructor"
    },
    {
      "anonymous": false,
      "inputs": [
        {
          "indexed": true,
          "name": "previousOwner",
          "type": "address"
        },
        {
          "indexed": true,
          "name": "newOwner",
          "type": "address"
        }
      ],
      "name": "OwnershipTransferred",
      "type": "event"
    },
    {
      "anonymous": false,
      "inputs": [
        {
          "indexed": true,
          "name": "burner",
          "type": "address"
        },
        {
          "indexed": false,
          "name": "value",
          "type": "uint256"
        }
      ],
      "name": "Burn",
      "type": "event"
    },
    {
      "anonymous": false,
      "inputs": [
        {
          "indexed": true,
          "name": "owner",
          "type": "address"
        },
        {
          "indexed": true,
          "name": "spender",
          "type": "address"
        },
        {
          "indexed": false,
          "name": "value",
          "type": "uint256"
        }
      ],
      "name": "Approval",
      "type": "event"
    },
    {
      "anonymous": false,
      "inputs": [
        {
          "indexed": true,
          "name": "from",
          "type": "address"
        },
        {
          "indexed": true,
          "name": "to",
          "type": "address"
        },
        {
          "indexed": false,
          "name": "value",
          "type": "uint256"
        }
      ],
      "name": "Transfer",
      "type": "event"
    }
  ],
  "bytecode": "0x60606040526000600760146101000a81548160ff021916908315150217905550341561002a57600080fd5b604051602080620024188339810160405280805190602001909190505033600360006101000a81548173ffffffffffffffffffffffffffffffffffffffff021916908373ffffffffffffffffffffffffffffffffffffffff1602179055508073ffffffffffffffffffffffffffffffffffffffff163373ffffffffffffffffffffffffffffffffffffffff16141515156100c357600080fd5b601260ff16600a0a630bebc20002600081905550601260ff16600a0a6308583b0002600481905550601260ff16600a0a630393870002600581905550600054600160003373ffffffffffffffffffffffffffffffffffffffff1673ffffffffffffffffffffffffffffffffffffffff168152602001908152602001600020819055503373ffffffffffffffffffffffffffffffffffffffff16600073ffffffffffffffffffffffffffffffffffffffff167fddf252ad1be2c89b69c2b068fc378daa952ba7f163c4a11628f55a4df523b3ef6000546040518082815260200191505060405180910390a380600760006101000a81548173ffffffffffffffffffffffffffffffffffffffff021916908373ffffffffffffffffffffffffffffffffffffffff16021790555061022f600760009054906101000a900473ffffffffffffffffffffffffffffffffffffffff1660055461023664010000000002610836176401000000009004565b5050610328565b600081600260003373ffffffffffffffffffffffffffffffffffffffff1673ffffffffffffffffffffffffffffffffffffffff16815260200190815260200160002060008573ffffffffffffffffffffffffffffffffffffffff1673ffffffffffffffffffffffffffffffffffffffff168152602001908152602001600020819055508273ffffffffffffffffffffffffffffffffffffffff163373ffffffffffffffffffffffffffffffffffffffff167f8c5be1e5ebec7d5bd14f71427d1e84f3dd0314c0f7b2291e5b200ac8c7c3b925846040518082815260200191505060405180910390a36001905092915050565b6120e080620003386000396000f30060606040526004361061013e576000357c0100000000000000000000000000000000000000000000000000000000900463ffffffff16806306fdde0314610143578063095ea7b3146101d157806318160ddd1461022b57806322ed63021461025457806323b872dd146102965780632ff2e9dc1461030f578063313ce5671461033857806342966c68146103675780634cd412d51461038a5780635c9d0fb1146103b757806366188463146103e057806370a082311461043a57806381830593146104875780638da5cb5b146104dc5780638eeb33ff1461053157806395d89b4114610586578063a9059cbb14610614578063d14ac7c41461066e578063d56de6ed14610697578063d73dd623146106c0578063dd62ed3e1461071a578063f1b50c1d14610786578063f2fde38b1461079b578063fc53f958146107d4575b600080fd5b341561014e57600080fd5b6101566107fd565b6040518080602001828103825283818151815260200191508051906020019080838360005b8381101561019657808201518184015260208101905061017b565b50505050905090810190601f1680156101c35780820380516001836020036101000a031916815260200191505b509250505060405180910390f35b34156101dc57600080fd5b610211600480803573ffffffffffffffffffffffffffffffffffffffff16906020019091908035906020019091905050610836565b604051808215151515815260200191505060405180910390f35b341561023657600080fd5b61023e610928565b6040518082815260200191505060405180910390f35b341561025f57600080fd5b610294600480803573ffffffffffffffffffffffffffffffffffffffff1690602001909190803590602001909190505061092e565b005b34156102a157600080fd5b6102f5600480803573ffffffffffffffffffffffffffffffffffffffff1690602001909190803573ffffffffffffffffffffffffffffffffffffffff16906020019091908035906020019091905050610a4c565b604051808215151515815260200191505060405180910390f35b341561031a57600080fd5b610322610dad565b6040518082815260200191505060405180910390f35b341561034357600080fd5b61034b610dbe565b604051808260ff1660ff16815260200191505060405180910390f35b341561037257600080fd5b6103886004808035906020019091905050610dc3565b005b341561039557600080fd5b61039d610e50565b604051808215151515815260200191505060405180910390f35b34156103c257600080fd5b6103ca610e63565b6040518082815260200191505060405180910390f35b34156103eb57600080fd5b610420600480803573ffffffffffffffffffffffffffffffffffffffff16906020019091908035906020019091905050610e74565b604051808215151515815260200191505060405180910390f35b341561044557600080fd5b610471600480803573ffffffffffffffffffffffffffffffffffffffff16906020019091905050611105565b6040518082815260200191505060405180910390f35b341561049257600080fd5b61049a61114e565b604051808273ffffffffffffffffffffffffffffffffffffffff1673ffffffffffffffffffffffffffffffffffffffff16815260200191505060405180910390f35b34156104e757600080fd5b6104ef611174565b604051808273ffffffffffffffffffffffffffffffffffffffff1673ffffffffffffffffffffffffffffffffffffffff16815260200191505060405180910390f35b341561053c57600080fd5b61054461119a565b604051808273ffffffffffffffffffffffffffffffffffffffff1673ffffffffffffffffffffffffffffffffffffffff16815260200191505060405180910390f35b341561059157600080fd5b6105996111c0565b6040518080602001828103825283818151815260200191508051906020019080838360005b838110156105d95780820151818401526020810190506105be565b50505050905090810190601f1680156106065780820380516001836020036101000a031916815260200191505b509250505060405180910390f35b341561061f57600080fd5b610654600480803573ffffffffffffffffffffffffffffffffffffffff169060200190919080359060200190919050506111f9565b604051808215151515815260200191505060405180910390f35b341561067957600080fd5b610681611468565b6040518082815260200191505060405180910390f35b34156106a257600080fd5b6106aa61146e565b6040518082815260200191505060405180910390f35b34156106cb57600080fd5b610700600480803573ffffffffffffffffffffffffffffffffffffffff16906020019091908035906020019091905050611474565b604051808215151515815260200191505060405180910390f35b341561072557600080fd5b610770600480803573ffffffffffffffffffffffffffffffffffffffff1690602001909190803573ffffffffffffffffffffffffffffffffffffffff16906020019091905050611670565b6040518082815260200191505060405180910390f35b341561079157600080fd5b6107996116f7565b005b34156107a657600080fd5b6107d2600480803573ffffffffffffffffffffffffffffffffffffffff169060200190919050506117dc565b005b34156107df57600080fd5b6107e7611934565b6040518082815260200191505060405180910390f35b6040805190810160405280600981526020017f474450522043617368000000000000000000000000000000000000000000000081525081565b600081600260003373ffffffffffffffffffffffffffffffffffffffff1673ffffffffffffffffffffffffffffffffffffffff16815260200190815260200160002060008573ffffffffffffffffffffffffffffffffffffffff1673ffffffffffffffffffffffffffffffffffffffff168152602001908152602001600020819055508273ffffffffffffffffffffffffffffffffffffffff163373ffffffffffffffffffffffffffffffffffffffff167f8c5be1e5ebec7d5bd14f71427d1e84f3dd0314c0f7b2291e5b200ac8c7c3b925846040518082815260200191505060405180910390a36001905092915050565b60005481565b6000600360009054906101000a900473ffffffffffffffffffffffffffffffffffffffff1673ffffffffffffffffffffffffffffffffffffffff163373ffffffffffffffffffffffffffffffffffffffff1614151561098c57600080fd5b600760149054906101000a900460ff161515156109a857600080fd5b60045482111515156109b957600080fd5b600082146109c757816109cb565b6004545b90506109fa600660009054906101000a900473ffffffffffffffffffffffffffffffffffffffff166000610836565b50610a058382610836565b5082600660006101000a81548173ffffffffffffffffffffffffffffffffffffffff021916908373ffffffffffffffffffffffffffffffffffffffff160217905550505050565b600080600760149054906101000a900460ff161515610b1a57600760009054906101000a900473ffffffffffffffffffffffffffffffffffffffff1673ffffffffffffffffffffffffffffffffffffffff163373ffffffffffffffffffffffffffffffffffffffff161480610b0e5750600660009054906101000a900473ffffffffffffffffffffffffffffffffffffffff1673ffffffffffffffffffffffffffffffffffffffff163373ffffffffffffffffffffffffffffffffffffffff16145b1515610b1957600080fd5b5b83600073ffffffffffffffffffffffffffffffffffffffff168173ffffffffffffffffffffffffffffffffffffffff1614151515610b5757600080fd5b3073ffffffffffffffffffffffffffffffffffffffff168173ffffffffffffffffffffffffffffffffffffffff1614151515610b9257600080fd5b600360009054906101000a900473ffffffffffffffffffffffffffffffffffffffff1673ffffffffffffffffffffffffffffffffffffffff168173ffffffffffffffffffffffffffffffffffffffff1614151515610bef57600080fd5b600760009054906101000a900473ffffffffffffffffffffffffffffffffffffffff1673ffffffffffffffffffffffffffffffffffffffff168173ffffffffffffffffffffffffffffffffffffffff1614151515610c4c57600080fd5b600660009054906101000a900473ffffffffffffffffffffffffffffffffffffffff1673ffffffffffffffffffffffffffffffffffffffff168173ffffffffffffffffffffffffffffffffffffffff1614151515610ca957600080fd5b610cb4868686611945565b91508115610da157600660009054906101000a900473ffffffffffffffffffffffffffffffffffffffff1673ffffffffffffffffffffffffffffffffffffffff163373ffffffffffffffffffffffffffffffffffffffff161415610d2e57610d2784600454611d0490919063ffffffff16565b6004819055505b600760009054906101000a900473ffffffffffffffffffffffffffffffffffffffff1673ffffffffffffffffffffffffffffffffffffffff163373ffffffffffffffffffffffffffffffffffffffff161415610da057610d9984600554611d0490919063ffffffff16565b6005819055505b5b81925050509392505050565b601260ff16600a0a630bebc2000281565b601281565b600760149054906101000a900460ff161515610dde57600080fd5b610de781611d1d565b600073ffffffffffffffffffffffffffffffffffffffff163373ffffffffffffffffffffffffffffffffffffffff167fddf252ad1be2c89b69c2b068fc378daa952ba7f163c4a11628f55a4df523b3ef836040518082815260200191505060405180910390a350565b600760149054906101000a900460ff1681565b601260ff16600a0a6308583b000281565b600080600260003373ffffffffffffffffffffffffffffffffffffffff1673ffffffffffffffffffffffffffffffffffffffff16815260200190815260200160002060008573ffffffffffffffffffffffffffffffffffffffff1673ffffffffffffffffffffffffffffffffffffffff16815260200190815260200160002054905080831115610f85576000600260003373ffffffffffffffffffffffffffffffffffffffff1673ffffffffffffffffffffffffffffffffffffffff16815260200190815260200160002060008673ffffffffffffffffffffffffffffffffffffffff1673ffffffffffffffffffffffffffffffffffffffff16815260200190815260200160002081905550611019565b610f988382611d0490919063ffffffff16565b600260003373ffffffffffffffffffffffffffffffffffffffff1673ffffffffffffffffffffffffffffffffffffffff16815260200190815260200160002060008673ffffffffffffffffffffffffffffffffffffffff1673ffffffffffffffffffffffffffffffffffffffff168152602001908152602001600020819055505b8373ffffffffffffffffffffffffffffffffffffffff163373ffffffffffffffffffffffffffffffffffffffff167f8c5be1e5ebec7d5bd14f71427d1e84f3dd0314c0f7b2291e5b200ac8c7c3b925600260003373ffffffffffffffffffffffffffffffffffffffff1673ffffffffffffffffffffffffffffffffffffffff16815260200190815260200160002060008873ffffffffffffffffffffffffffffffffffffffff1673ffffffffffffffffffffffffffffffffffffffff168152602001908152602001600020546040518082815260200191505060405180910390a3600191505092915050565b6000600160008373ffffffffffffffffffffffffffffffffffffffff1673ffffffffffffffffffffffffffffffffffffffff168152602001908152602001600020549050919050565b600760009054906101000a900473ffffffffffffffffffffffffffffffffffffffff1681565b600360009054906101000a900473ffffffffffffffffffffffffffffffffffffffff1681565b600660009054906101000a900473ffffffffffffffffffffffffffffffffffffffff1681565b6040805190810160405280600481526020017f474450520000000000000000000000000000000000000000000000000000000081525081565b6000600760149054906101000a900460ff1615156112c657600760009054906101000a900473ffffffffffffffffffffffffffffffffffffffff1673ffffffffffffffffffffffffffffffffffffffff163373ffffffffffffffffffffffffffffffffffffffff1614806112ba5750600660009054906101000a900473ffffffffffffffffffffffffffffffffffffffff1673ffffffffffffffffffffffffffffffffffffffff163373ffffffffffffffffffffffffffffffffffffffff16145b15156112c557600080fd5b5b82600073ffffffffffffffffffffffffffffffffffffffff168173ffffffffffffffffffffffffffffffffffffffff161415151561130357600080fd5b3073ffffffffffffffffffffffffffffffffffffffff168173ffffffffffffffffffffffffffffffffffffffff161415151561133e57600080fd5b600360009054906101000a900473ffffffffffffffffffffffffffffffffffffffff1673ffffffffffffffffffffffffffffffffffffffff168173ffffffffffffffffffffffffffffffffffffffff161415151561139b57600080fd5b600760009054906101000a900473ffffffffffffffffffffffffffffffffffffffff1673ffffffffffffffffffffffffffffffffffffffff168173ffffffffffffffffffffffffffffffffffffffff16141515156113f857600080fd5b600660009054906101000a900473ffffffffffffffffffffffffffffffffffffffff1673ffffffffffffffffffffffffffffffffffffffff168173ffffffffffffffffffffffffffffffffffffffff161415151561145557600080fd5b61145f8484611e72565b91505092915050565b60045481565b60055481565b600061150582600260003373ffffffffffffffffffffffffffffffffffffffff1673ffffffffffffffffffffffffffffffffffffffff16815260200190815260200160002060008673ffffffffffffffffffffffffffffffffffffffff1673ffffffffffffffffffffffffffffffffffffffff1681526020019081526020016000205461209690919063ffffffff16565b600260003373ffffffffffffffffffffffffffffffffffffffff1673ffffffffffffffffffffffffffffffffffffffff16815260200190815260200160002060008573ffffffffffffffffffffffffffffffffffffffff1673ffffffffffffffffffffffffffffffffffffffff168152602001908152602001600020819055508273ffffffffffffffffffffffffffffffffffffffff163373ffffffffffffffffffffffffffffffffffffffff167f8c5be1e5ebec7d5bd14f71427d1e84f3dd0314c0f7b2291e5b200ac8c7c3b925600260003373ffffffffffffffffffffffffffffffffffffffff1673ffffffffffffffffffffffffffffffffffffffff16815260200190815260200160002060008773ffffffffffffffffffffffffffffffffffffffff1673ffffffffffffffffffffffffffffffffffffffff168152602001908152602001600020546040518082815260200191505060405180910390a36001905092915050565b6000600260008473ffffffffffffffffffffffffffffffffffffffff1673ffffffffffffffffffffffffffffffffffffffff16815260200190815260200160002060008373ffffffffffffffffffffffffffffffffffffffff1673ffffffffffffffffffffffffffffffffffffffff16815260200190815260200160002054905092915050565b600360009054906101000a900473ffffffffffffffffffffffffffffffffffffffff1673ffffffffffffffffffffffffffffffffffffffff163373ffffffffffffffffffffffffffffffffffffffff1614151561175357600080fd5b6001600760146101000a81548160ff02191690831515021790555061179b600660009054906101000a900473ffffffffffffffffffffffffffffffffffffffff166000610836565b506117c9600760009054906101000a900473ffffffffffffffffffffffffffffffffffffffff166000610836565b5060006004819055506000600581905550565b600360009054906101000a900473ffffffffffffffffffffffffffffffffffffffff1673ffffffffffffffffffffffffffffffffffffffff163373ffffffffffffffffffffffffffffffffffffffff1614151561183857600080fd5b600073ffffffffffffffffffffffffffffffffffffffff168173ffffffffffffffffffffffffffffffffffffffff161415151561187457600080fd5b8073ffffffffffffffffffffffffffffffffffffffff16600360009054906101000a900473ffffffffffffffffffffffffffffffffffffffff1673ffffffffffffffffffffffffffffffffffffffff167f8be0079c531659141344cd1fd0a4f28419497f9722a3daafe3b4186f6b6457e060405160405180910390a380600360006101000a81548173ffffffffffffffffffffffffffffffffffffffff021916908373ffffffffffffffffffffffffffffffffffffffff16021790555050565b601260ff16600a0a63039387000281565b60008073ffffffffffffffffffffffffffffffffffffffff168373ffffffffffffffffffffffffffffffffffffffff161415151561198257600080fd5b600160008573ffffffffffffffffffffffffffffffffffffffff1673ffffffffffffffffffffffffffffffffffffffff1681526020019081526020016000205482111515156119d057600080fd5b600260008573ffffffffffffffffffffffffffffffffffffffff1673ffffffffffffffffffffffffffffffffffffffff16815260200190815260200160002060003373ffffffffffffffffffffffffffffffffffffffff1673ffffffffffffffffffffffffffffffffffffffff168152602001908152602001600020548211151515611a5b57600080fd5b611aad82600160008773ffffffffffffffffffffffffffffffffffffffff1673ffffffffffffffffffffffffffffffffffffffff16815260200190815260200160002054611d0490919063ffffffff16565b600160008673ffffffffffffffffffffffffffffffffffffffff1673ffffffffffffffffffffffffffffffffffffffff16815260200190815260200160002081905550611b4282600160008673ffffffffffffffffffffffffffffffffffffffff1673ffffffffffffffffffffffffffffffffffffffff1681526020019081526020016000205461209690919063ffffffff16565b600160008573ffffffffffffffffffffffffffffffffffffffff1673ffffffffffffffffffffffffffffffffffffffff16815260200190815260200160002081905550611c1482600260008773ffffffffffffffffffffffffffffffffffffffff1673ffffffffffffffffffffffffffffffffffffffff16815260200190815260200160002060003373ffffffffffffffffffffffffffffffffffffffff1673ffffffffffffffffffffffffffffffffffffffff16815260200190815260200160002054611d0490919063ffffffff16565b600260008673ffffffffffffffffffffffffffffffffffffffff1673ffffffffffffffffffffffffffffffffffffffff16815260200190815260200160002060003373ffffffffffffffffffffffffffffffffffffffff1673ffffffffffffffffffffffffffffffffffffffff168152602001908152602001600020819055508273ffffffffffffffffffffffffffffffffffffffff168473ffffffffffffffffffffffffffffffffffffffff167fddf252ad1be2c89b69c2b068fc378daa952ba7f163c4a11628f55a4df523b3ef846040518082815260200191505060405180910390a3600190509392505050565b6000828211151515611d1257fe5b818303905092915050565b6000600160003373ffffffffffffffffffffffffffffffffffffffff1673ffffffffffffffffffffffffffffffffffffffff168152602001908152602001600020548211151515611d6d57600080fd5b339050611dc282600160008473ffffffffffffffffffffffffffffffffffffffff1673ffffffffffffffffffffffffffffffffffffffff16815260200190815260200160002054611d0490919063ffffffff16565b600160008373ffffffffffffffffffffffffffffffffffffffff1673ffffffffffffffffffffffffffffffffffffffff16815260200190815260200160002081905550611e1a82600054611d0490919063ffffffff16565b6000819055508073ffffffffffffffffffffffffffffffffffffffff167fcc16f5dbb4873280815c1ee09dbd06736cffcc184412cf7a71a0fdb75d397ca5836040518082815260200191505060405180910390a25050565b60008073ffffffffffffffffffffffffffffffffffffffff168373ffffffffffffffffffffffffffffffffffffffff1614151515611eaf57600080fd5b600160003373ffffffffffffffffffffffffffffffffffffffff1673ffffffffffffffffffffffffffffffffffffffff168152602001908152602001600020548211151515611efd57600080fd5b611f4f82600160003373ffffffffffffffffffffffffffffffffffffffff1673ffffffffffffffffffffffffffffffffffffffff16815260200190815260200160002054611d0490919063ffffffff16565b600160003373ffffffffffffffffffffffffffffffffffffffff1673ffffffffffffffffffffffffffffffffffffffff16815260200190815260200160002081905550611fe482600160008673ffffffffffffffffffffffffffffffffffffffff1673ffffffffffffffffffffffffffffffffffffffff1681526020019081526020016000205461209690919063ffffffff16565b600160008573ffffffffffffffffffffffffffffffffffffffff1673ffffffffffffffffffffffffffffffffffffffff168152602001908152602001600020819055508273ffffffffffffffffffffffffffffffffffffffff163373ffffffffffffffffffffffffffffffffffffffff167fddf252ad1be2c89b69c2b068fc378daa952ba7f163c4a11628f55a4df523b3ef846040518082815260200191505060405180910390a36001905092915050565b60008082840190508381101515156120aa57fe5b80915050929150505600a165627a7a7230582022dcc5b98fa18af2dd1536f1cb1849ca9a4055aeb3fe19f7bc217672fd1b64550029",
  "source": "// GDPR Cash\r\n\r\npragma solidity ^0.4.17;\r\n\r\nimport './token/StandardToken.sol';\r\nimport './token/BurnableToken.sol';\r\nimport './ownership/Ownable.sol';\r\nimport './math/SafeMath.sol';\r\n\r\n/**\r\n * The GDPR Cash (GDPR) has a fixed supply and restricts the ability\r\n * to transfer tokens until the owner has called the enableTransfer()\r\n * function.\r\n *\r\n * The owner can associate the token with a token sale contract. In that\r\n * case, the token balance is moved to the token sale contract, which\r\n * in turn can transfer its tokens to contributors to the sale.\r\n */\r\ncontract GDPRCash is StandardToken, BurnableToken, Ownable {\r\n\r\n    // Constants\r\n    string  public constant name = \"GDPR Cash\";\r\n    string  public constant symbol = \"GDPR\";\r\n    uint8   public constant decimals = 18;\r\n\r\n    // Supplies\r\n    uint256 public constant INITIAL_SUPPLY      = 200000000 * (10 ** uint256(decimals));\r\n    uint256 public constant CROWDSALE_ALLOWANCE = 140000000 * (10 ** uint256(decimals));\r\n    uint256 public constant ADMIN_ALLOWANCE     =  60000000 * (10 ** uint256(decimals));\r\n\r\n    // Properties\r\n    uint256 public crowdSaleAllowance;      // the number of tokens available for crowdsales\r\n    uint256 public adminAllowance;          // the number of tokens available for the administrator\r\n    address public crowdSaleAddr;           // the address of a crowdsale currently selling this token\r\n    address public adminAddr;               // the address of a crowdsale currently selling this token\r\n    bool    public transferEnabled = false; // indicates if transferring tokens is enabled or not\r\n\r\n    // Modifiers\r\n    modifier onlyWhenTransferEnabled() {\r\n        if (!transferEnabled) {\r\n            require(msg.sender == adminAddr || msg.sender == crowdSaleAddr);\r\n        }\r\n        _;\r\n    }\r\n\r\n    /**\r\n     * The listed addresses are not valid recipients of tokens.\r\n     *\r\n     * 0x0           - the zero address is not valid\r\n     * this          - the contract itself should not receive tokens\r\n     * owner         - the owner has all the initial tokens, but cannot receive any back\r\n     * adminAddr     - the admin has an allowance of tokens to transfer, but does not receive any\r\n     * crowdSaleAddr - the crowdsale has an allowance of tokens to transfer, but does not receive any\r\n     */\r\n    modifier validDestination(address _to) {\r\n        require(_to != address(0x0));\r\n        require(_to != address(this));\r\n        require(_to != owner);\r\n        require(_to != address(adminAddr));\r\n        require(_to != address(crowdSaleAddr));\r\n        _;\r\n    }\r\n\r\n    /**\r\n     * Constructor - instantiates token supply and allocates balanace of\r\n     * to the owner (msg.sender).\r\n     */\r\n    function GDPRCash(address _admin) public {\r\n        // the owner is a custodian of tokens that can\r\n        // give an allowance of tokens for crowdsales\r\n        // or to the admin, but cannot itself transfer\r\n        // tokens; hence, this requirement\r\n        require(msg.sender != _admin);\r\n\r\n        totalSupply = INITIAL_SUPPLY;\r\n        crowdSaleAllowance = CROWDSALE_ALLOWANCE;\r\n        adminAllowance = ADMIN_ALLOWANCE;\r\n\r\n        // mint all tokens\r\n        balances[msg.sender] = totalSupply;\r\n        Transfer(address(0x0), msg.sender, totalSupply);\r\n\r\n        adminAddr = _admin;\r\n        approve(adminAddr, adminAllowance);\r\n    }\r\n\r\n    /**\r\n     * Associates this token with a current crowdsale, giving the crowdsale\r\n     * an allowance of tokens from the crowdsale supply. This gives the\r\n     * crowdsale the ability to call transferFrom to transfer tokens to\r\n     * whomever has purchased them.\r\n     *\r\n     * Note that if _amountForSale is 0, then it is assumed that the full\r\n     * remaining crowdsale supply is made available to the crowdsale.\r\n     *\r\n     * @param _crowdSaleAddr The address of a crowdsale contract that will sell this token\r\n     * @param _amountForSale The supply of tokens provided to the crowdsale\r\n     */\r\n    function setCrowdsale(address _crowdSaleAddr, uint256 _amountForSale) external onlyOwner {\r\n        require(!transferEnabled);\r\n        require(_amountForSale <= crowdSaleAllowance);\r\n\r\n        // if 0, then full available crowdsale supply is assumed\r\n        uint amount = (_amountForSale == 0) ? crowdSaleAllowance : _amountForSale;\r\n\r\n        // Clear allowance of old, and set allowance of new\r\n        approve(crowdSaleAddr, 0);\r\n        approve(_crowdSaleAddr, amount);\r\n\r\n        crowdSaleAddr = _crowdSaleAddr;\r\n    }\r\n\r\n    /**\r\n     * Enables the ability of anyone to transfer their tokens. This can\r\n     * only be called by the token owner. Once enabled, it is not\r\n     * possible to disable transfers.\r\n     */\r\n    function enableTransfer() external onlyOwner {\r\n        transferEnabled = true;\r\n        approve(crowdSaleAddr, 0);\r\n        approve(adminAddr, 0);\r\n        crowdSaleAllowance = 0;\r\n        adminAllowance = 0;\r\n    }\r\n\r\n    /**\r\n     * Overrides ERC20 transfer function with modifier that prevents the\r\n     * ability to transfer tokens until after transfers have been enabled.\r\n     */\r\n    function transfer(address _to, uint256 _value) public onlyWhenTransferEnabled validDestination(_to) returns (bool) {\r\n        return super.transfer(_to, _value);\r\n    }\r\n\r\n    /**\r\n     * Overrides ERC20 transferFrom function with modifier that prevents the\r\n     * ability to transfer tokens until after transfers have been enabled.\r\n     */\r\n    function transferFrom(address _from, address _to, uint256 _value) public onlyWhenTransferEnabled validDestination(_to) returns (bool) {\r\n        bool result = super.transferFrom(_from, _to, _value);\r\n        if (result) {\r\n            if (msg.sender == crowdSaleAddr)\r\n                crowdSaleAllowance = crowdSaleAllowance.sub(_value);\r\n            if (msg.sender == adminAddr)\r\n                adminAllowance = adminAllowance.sub(_value);\r\n        }\r\n        return result;\r\n    }\r\n\r\n    /**\r\n     * Overrides the burn function so that it cannot be called until after\r\n     * transfers have been enabled.\r\n     *\r\n     * @param _value    The amount of tokens to burn in mini-GDPR\r\n     */\r\n    function burn(uint256 _value) public {\r\n        require(transferEnabled);\r\n        super.burn(_value);\r\n        Transfer(msg.sender, address(0x0), _value);\r\n    }\r\n}",
  "sourcePath": "D:\\Projects\\gdpr-cash\\gdpr-token-sale\\contracts\\GDPRCash.sol",
  "compiler": {
    "name": "solc",
    "version": "0.4.18+commit.9cf6e910.Emscripten.clang"
  },
  "schemaVersion": "1.0.1",
  "updatedAt": "2018-02-13T13:24:54.231Z"
}