{
  "contractName": "GDPRCashSaleMock",
  "abi": [
    {
      "constant": false,
      "inputs": [],
      "name": "terminate",
      "outputs": [],
      "payable": false,
      "stateMutability": "nonpayable",
      "type": "function"
    },
    {
      "constant": false,
      "inputs": [],
      "name": "ownerUnlockFund",
      "outputs": [],
      "payable": false,
      "stateMutability": "nonpayable",
      "type": "function"
    },
    {
      "constant": false,
      "inputs": [
        {
          "name": "_to",
          "type": "address"
        },
        {
          "name": "amountWei",
          "type": "uint256"
        },
        {
          "name": "amountMiniGDPR",
          "type": "uint256"
        }
      ],
      "name": "ownerAllocateTokens",
      "outputs": [],
      "payable": false,
      "stateMutability": "nonpayable",
      "type": "function"
    },
    {
      "constant": true,
      "inputs": [],
      "name": "rate",
      "outputs": [
        {
          "name": "",
          "type": "uint256"
        }
      ],
      "payable": false,
      "stateMutability": "view",
      "type": "function"
    },
    {
      "constant": true,
      "inputs": [],
      "name": "endTime",
      "outputs": [
        {
          "name": "",
          "type": "uint256"
        }
      ],
      "payable": false,
      "stateMutability": "view",
      "type": "function"
    },
    {
      "constant": false,
      "inputs": [
        {
          "name": "_rate",
          "type": "uint256"
        }
      ],
      "name": "setRate",
      "outputs": [],
      "payable": false,
      "stateMutability": "nonpayable",
      "type": "function"
    },
    {
      "constant": true,
      "inputs": [],
      "name": "beneficiary",
      "outputs": [
        {
          "name": "",
          "type": "address"
        }
      ],
      "payable": false,
      "stateMutability": "view",
      "type": "function"
    },
    {
      "constant": false,
      "inputs": [],
      "name": "unpause",
      "outputs": [],
      "payable": false,
      "stateMutability": "nonpayable",
      "type": "function"
    },
    {
      "constant": true,
      "inputs": [],
      "name": "paused",
      "outputs": [
        {
          "name": "",
          "type": "bool"
        }
      ],
      "payable": false,
      "stateMutability": "view",
      "type": "function"
    },
    {
      "constant": true,
      "inputs": [],
      "name": "tokenReward",
      "outputs": [
        {
          "name": "",
          "type": "address"
        }
      ],
      "payable": false,
      "stateMutability": "view",
      "type": "function"
    },
    {
      "constant": true,
      "inputs": [
        {
          "name": "",
          "type": "address"
        }
      ],
      "name": "balanceOf",
      "outputs": [
        {
          "name": "",
          "type": "uint256"
        }
      ],
      "payable": false,
      "stateMutability": "view",
      "type": "function"
    },
    {
      "constant": false,
      "inputs": [],
      "name": "ownerSafeWithdrawal",
      "outputs": [],
      "payable": false,
      "stateMutability": "nonpayable",
      "type": "function"
    },
    {
      "constant": true,
      "inputs": [],
      "name": "startTime",
      "outputs": [
        {
          "name": "",
          "type": "uint256"
        }
      ],
      "payable": false,
      "stateMutability": "view",
      "type": "function"
    },
    {
      "constant": false,
      "inputs": [
        {
          "name": "_newTime",
          "type": "uint256"
        }
      ],
      "name": "changeTime",
      "outputs": [],
      "payable": false,
      "stateMutability": "nonpayable",
      "type": "function"
    },
    {
      "constant": true,
      "inputs": [],
      "name": "fundingGoal",
      "outputs": [
        {
          "name": "",
          "type": "uint256"
        }
      ],
      "payable": false,
      "stateMutability": "view",
      "type": "function"
    },
    {
      "constant": true,
      "inputs": [],
      "name": "amountRaised",
      "outputs": [
        {
          "name": "",
          "type": "uint256"
        }
      ],
      "payable": false,
      "stateMutability": "view",
      "type": "function"
    },
    {
      "constant": false,
      "inputs": [],
      "name": "pause",
      "outputs": [],
      "payable": false,
      "stateMutability": "nonpayable",
      "type": "function"
    },
    {
      "constant": true,
      "inputs": [],
      "name": "fundingCapReached",
      "outputs": [
        {
          "name": "",
          "type": "bool"
        }
      ],
      "payable": false,
      "stateMutability": "view",
      "type": "function"
    },
    {
      "constant": true,
      "inputs": [],
      "name": "owner",
      "outputs": [
        {
          "name": "",
          "type": "address"
        }
      ],
      "payable": false,
      "stateMutability": "view",
      "type": "function"
    },
    {
      "constant": true,
      "inputs": [],
      "name": "minContribution",
      "outputs": [
        {
          "name": "",
          "type": "uint256"
        }
      ],
      "payable": false,
      "stateMutability": "view",
      "type": "function"
    },
    {
      "constant": true,
      "inputs": [],
      "name": "refundAmount",
      "outputs": [
        {
          "name": "",
          "type": "uint256"
        }
      ],
      "payable": false,
      "stateMutability": "view",
      "type": "function"
    },
    {
      "constant": true,
      "inputs": [],
      "name": "_now",
      "outputs": [
        {
          "name": "",
          "type": "uint256"
        }
      ],
      "payable": false,
      "stateMutability": "view",
      "type": "function"
    },
    {
      "constant": true,
      "inputs": [],
      "name": "saleClosed",
      "outputs": [
        {
          "name": "",
          "type": "bool"
        }
      ],
      "payable": false,
      "stateMutability": "view",
      "type": "function"
    },
    {
      "constant": true,
      "inputs": [],
      "name": "fundingGoalReached",
      "outputs": [
        {
          "name": "",
          "type": "bool"
        }
      ],
      "payable": false,
      "stateMutability": "view",
      "type": "function"
    },
    {
      "constant": true,
      "inputs": [],
      "name": "fundingCap",
      "outputs": [
        {
          "name": "",
          "type": "uint256"
        }
      ],
      "payable": false,
      "stateMutability": "view",
      "type": "function"
    },
    {
      "constant": true,
      "inputs": [],
      "name": "LOW_RANGE_RATE",
      "outputs": [
        {
          "name": "",
          "type": "uint256"
        }
      ],
      "payable": false,
      "stateMutability": "view",
      "type": "function"
    },
    {
      "constant": true,
      "inputs": [],
      "name": "HIGH_RANGE_RATE",
      "outputs": [
        {
          "name": "",
          "type": "uint256"
        }
      ],
      "payable": false,
      "stateMutability": "view",
      "type": "function"
    },
    {
      "constant": false,
      "inputs": [
        {
          "name": "newOwner",
          "type": "address"
        }
      ],
      "name": "transferOwnership",
      "outputs": [],
      "payable": false,
      "stateMutability": "nonpayable",
      "type": "function"
    },
    {
      "constant": false,
      "inputs": [],
      "name": "safeWithdrawal",
      "outputs": [],
      "payable": false,
      "stateMutability": "nonpayable",
      "type": "function"
    },
    {
      "inputs": [
        {
          "name": "ifSuccessfulSendTo",
          "type": "address"
        },
        {
          "name": "fundingGoalInEthers",
          "type": "uint256"
        },
        {
          "name": "fundingCapInEthers",
          "type": "uint256"
        },
        {
          "name": "minimumContributionInWei",
          "type": "uint256"
        },
        {
          "name": "start",
          "type": "uint256"
        },
        {
          "name": "durationInMinutes",
          "type": "uint256"
        },
        {
          "name": "rateQspToEther",
          "type": "uint256"
        },
        {
          "name": "addressOfTokenUsedAsReward",
          "type": "address"
        }
      ],
      "payable": false,
      "stateMutability": "nonpayable",
      "type": "constructor"
    },
    {
      "payable": true,
      "stateMutability": "payable",
      "type": "fallback"
    },
    {
      "anonymous": false,
      "inputs": [
        {
          "indexed": false,
          "name": "key",
          "type": "uint256"
        },
        {
          "indexed": false,
          "name": "val",
          "type": "uint256"
        }
      ],
      "name": "HitLine",
      "type": "event"
    },
    {
      "anonymous": false,
      "inputs": [
        {
          "indexed": false,
          "name": "_beneficiary",
          "type": "address"
        },
        {
          "indexed": false,
          "name": "_amountRaised",
          "type": "uint256"
        }
      ],
      "name": "GoalReached",
      "type": "event"
    },
    {
      "anonymous": false,
      "inputs": [
        {
          "indexed": false,
          "name": "_beneficiary",
          "type": "address"
        },
        {
          "indexed": false,
          "name": "_amountRaised",
          "type": "uint256"
        }
      ],
      "name": "CapReached",
      "type": "event"
    },
    {
      "anonymous": false,
      "inputs": [
        {
          "indexed": false,
          "name": "_backer",
          "type": "address"
        },
        {
          "indexed": false,
          "name": "_amount",
          "type": "uint256"
        },
        {
          "indexed": false,
          "name": "_isContribution",
          "type": "bool"
        }
      ],
      "name": "FundTransfer",
      "type": "event"
    },
    {
      "anonymous": false,
      "inputs": [],
      "name": "Pause",
      "type": "event"
    },
    {
      "anonymous": false,
      "inputs": [],
      "name": "Unpause",
      "type": "event"
    },
    {
      "anonymous": false,
      "inputs": [
        {
          "indexed": true,
          "name": "previousOwner",
          "type": "address"
        },
        {
          "indexed": true,
          "name": "newOwner",
          "type": "address"
        }
      ],
      "name": "OwnershipTransferred",
      "type": "event"
    }
  ],
  "bytecode": "0x606060405260008060146101000a81548160ff0219169083151502179055506000600560006101000a81548160ff0219169083151502179055506000600560016101000a81548160ff0219169083151502179055506000600560026101000a81548160ff0219169083151502179055506000600b60006101000a81548160ff02191690831515021790555034156200009657600080fd5b6040516101008062001e43833981016040528080519060200190919080519060200190919080519060200190919080519060200190919080519060200190919080519060200190919080519060200190919080519060200190919050508787878787878787336000806101000a81548173ffffffffffffffffffffffffffffffffffffffff021916908373ffffffffffffffffffffffffffffffffffffffff160217905550600073ffffffffffffffffffffffffffffffffffffffff168873ffffffffffffffffffffffffffffffffffffffff1614158015620001a557503073ffffffffffffffffffffffffffffffffffffffff168873ffffffffffffffffffffffffffffffffffffffff1614155b1515620001b157600080fd5b600073ffffffffffffffffffffffffffffffffffffffff168173ffffffffffffffffffffffffffffffffffffffff16141580156200021b57503073ffffffffffffffffffffffffffffffffffffffff168173ffffffffffffffffffffffffffffffffffffffff1614155b15156200022757600080fd5b8587111515156200023757600080fd5b6000831115156200024757600080fd5b87600160006101000a81548173ffffffffffffffffffffffffffffffffffffffff021916908373ffffffffffffffffffffffffffffffffffffffff160217905550670de0b6b3a76400008702600281905550670de0b6b3a764000086026003819055508460048190555083600681905550603c83028401600781905550620002e382620003446401000000000262001168176401000000009004565b80600b60016101000a81548173ffffffffffffffffffffffffffffffffffffffff021916908373ffffffffffffffffffffffffffffffffffffffff160217905550505050505050505060018401600d819055505050505050505050620003cb565b6000809054906101000a900473ffffffffffffffffffffffffffffffffffffffff1673ffffffffffffffffffffffffffffffffffffffff163373ffffffffffffffffffffffffffffffffffffffff16141515620003a057600080fd5b6113888110158015620003b55750614e208111155b1515620003c157600080fd5b80600a8190555050565b611a6880620003db6000396000f300606060405260043610610175576000357c0100000000000000000000000000000000000000000000000000000000900463ffffffff1680630c08bf881461057057806323ec8f621461058557806328e081861461059a5780632c4e722e146105e55780633197cbb61461060e57806334fcf4371461063757806338af3eed1461065a5780633f4ba83a146106af5780635c975abb146106c45780636e66f6e9146106f157806370a0823114610746578063782e34c91461079357806378e97925146107a85780637974f8fe146107d15780637a3a0e84146107f45780637b3e5e7b1461081d5780638456cb5914610846578063848b38211461085b5780638da5cb5b14610888578063aaffadf3146108dd578063ad33513f14610906578063b3bb8cd41461092f578063b8c766b814610958578063d424f62814610985578063e3b2594f146109b2578063ea871246146109db578063ef35fc1614610a04578063f2fde38b14610a2d578063fd6b7ef814610a66575b60008060008060149054906101000a900460ff1615151561019557600080fd5b6007546101a0610a7b565b1015156101ac57600080fd5b6006546101b7610a7b565b101515156101c457600080fd5b600560029054906101000a900460ff161515156101e057600080fd5b600b60009054906101000a900460ff161515156101fc57600080fd5b6001600b60006101000a81548160ff021916908315150217905550600454341015151561022857600080fd5b349250600c60003373ffffffffffffffffffffffffffffffffffffffff1673ffffffffffffffffffffffffffffffffffffffff1681526020019081526020016000205491506102808383610a8590919063ffffffff16565b600c60003373ffffffffffffffffffffffffffffffffffffffff1673ffffffffffffffffffffffffffffffffffffffff168152602001908152602001600020819055506102d883600854610a8590919063ffffffff16565b6008819055506102f3600a5484610aa390919063ffffffff16565b9050600b60019054906101000a900473ffffffffffffffffffffffffffffffffffffffff1673ffffffffffffffffffffffffffffffffffffffff166323b872dd600b60019054906101000a900473ffffffffffffffffffffffffffffffffffffffff1673ffffffffffffffffffffffffffffffffffffffff16638da5cb5b6000604051602001526040518163ffffffff167c0100000000000000000000000000000000000000000000000000000000028152600401602060405180830381600087803b15156103c157600080fd5b6102c65a03f115156103d257600080fd5b5050506040518051905033846000604051602001526040518463ffffffff167c0100000000000000000000000000000000000000000000000000000000028152600401808473ffffffffffffffffffffffffffffffffffffffff1673ffffffffffffffffffffffffffffffffffffffff1681526020018373ffffffffffffffffffffffffffffffffffffffff1673ffffffffffffffffffffffffffffffffffffffff1681526020018281526020019350505050602060405180830381600087803b151561049e57600080fd5b6102c65a03f115156104af57600080fd5b505050604051805190501561054b577fe842aea7a5f1b01049d752008c53c52890b1a6daf660cf39e8eec506112bbdf633846001604051808473ffffffffffffffffffffffffffffffffffffffff1673ffffffffffffffffffffffffffffffffffffffff16815260200183815260200182151515158152602001935050505060405180910390a161053e610ade565b610546610baf565b610550565b600080fd5b6000600b60006101000a81548160ff021916908315150217905550505050005b341561057b57600080fd5b610583610c9b565b005b341561059057600080fd5b610598610d13565b005b34156105a557600080fd5b6105e3600480803573ffffffffffffffffffffffffffffffffffffffff16906020019091908035906020019091908035906020019091905050610da3565b005b34156105f057600080fd5b6105f861115c565b6040518082815260200191505060405180910390f35b341561061957600080fd5b610621611162565b6040518082815260200191505060405180910390f35b341561064257600080fd5b6106586004808035906020019091905050611168565b005b341561066557600080fd5b61066d6111ec565b604051808273ffffffffffffffffffffffffffffffffffffffff1673ffffffffffffffffffffffffffffffffffffffff16815260200191505060405180910390f35b34156106ba57600080fd5b6106c2611212565b005b34156106cf57600080fd5b6106d76112d0565b604051808215151515815260200191505060405180910390f35b34156106fc57600080fd5b6107046112e3565b604051808273ffffffffffffffffffffffffffffffffffffffff1673ffffffffffffffffffffffffffffffffffffffff16815260200191505060405180910390f35b341561075157600080fd5b61077d600480803573ffffffffffffffffffffffffffffffffffffffff16906020019091905050611309565b6040518082815260200191505060405180910390f35b341561079e57600080fd5b6107a6611321565b005b34156107b357600080fd5b6107bb611504565b6040518082815260200191505060405180910390f35b34156107dc57600080fd5b6107f2600480803590602001909190505061150a565b005b34156107ff57600080fd5b6108076115af565b6040518082815260200191505060405180910390f35b341561082857600080fd5b6108306115b5565b6040518082815260200191505060405180910390f35b341561085157600080fd5b6108596115bb565b005b341561086657600080fd5b61086e61167b565b604051808215151515815260200191505060405180910390f35b341561089357600080fd5b61089b61168e565b604051808273ffffffffffffffffffffffffffffffffffffffff1673ffffffffffffffffffffffffffffffffffffffff16815260200191505060405180910390f35b34156108e857600080fd5b6108f06116b3565b6040518082815260200191505060405180910390f35b341561091157600080fd5b6109196116b9565b6040518082815260200191505060405180910390f35b341561093a57600080fd5b6109426116bf565b6040518082815260200191505060405180910390f35b341561096357600080fd5b61096b6116c5565b604051808215151515815260200191505060405180910390f35b341561099057600080fd5b6109986116d8565b604051808215151515815260200191505060405180910390f35b34156109bd57600080fd5b6109c56116eb565b6040518082815260200191505060405180910390f35b34156109e657600080fd5b6109ee6116f1565b6040518082815260200191505060405180910390f35b3415610a0f57600080fd5b610a176116f7565b6040518082815260200191505060405180910390f35b3415610a3857600080fd5b610a64600480803573ffffffffffffffffffffffffffffffffffffffff169060200190919050506116fd565b005b3415610a7157600080fd5b610a79611852565b005b6000600d54905090565b6000808284019050838110151515610a9957fe5b8091505092915050565b6000806000841415610ab85760009150610ad7565b8284029050828482811515610ac957fe5b04141515610ad357fe5b8091505b5092915050565b600560009054906101000a900460ff161515610bad57600254600854101515610bac576001600560006101000a81548160ff0219169083151502179055507fec3f991caf7857d61663fd1bba1739e04abd4781238508cde554bb849d790c85600160009054906101000a900473ffffffffffffffffffffffffffffffffffffffff16600854604051808373ffffffffffffffffffffffffffffffffffffffff1673ffffffffffffffffffffffffffffffffffffffff1681526020018281526020019250505060405180910390a15b5b565b600560019054906101000a900460ff161515610c9957600354600854101515610c98576001600560016101000a81548160ff0219169083151502179055506001600560026101000a81548160ff0219169083151502179055507f195de8a1ebf5a1244af169b7e0bd0f735307a2626a73abce88f9b488628c6c24600160009054906101000a900473ffffffffffffffffffffffffffffffffffffffff16600854604051808373ffffffffffffffffffffffffffffffffffffffff1673ffffffffffffffffffffffffffffffffffffffff1681526020018281526020019250505060405180910390a15b5b565b6000809054906101000a900473ffffffffffffffffffffffffffffffffffffffff1673ffffffffffffffffffffffffffffffffffffffff163373ffffffffffffffffffffffffffffffffffffffff16141515610cf657600080fd5b6001600560026101000a81548160ff021916908315150217905550565b600754610d1e610a7b565b10151515610d2b57600080fd5b6000809054906101000a900473ffffffffffffffffffffffffffffffffffffffff1673ffffffffffffffffffffffffffffffffffffffff163373ffffffffffffffffffffffffffffffffffffffff16141515610d8657600080fd5b6000600560006101000a81548160ff021916908315150217905550565b6000809054906101000a900473ffffffffffffffffffffffffffffffffffffffff1673ffffffffffffffffffffffffffffffffffffffff163373ffffffffffffffffffffffffffffffffffffffff16141515610dfe57600080fd5b600b60009054906101000a900460ff16151515610e1a57600080fd5b6001600b60006101000a81548160ff021916908315150217905550600b60019054906101000a900473ffffffffffffffffffffffffffffffffffffffff1673ffffffffffffffffffffffffffffffffffffffff166323b872dd600b60019054906101000a900473ffffffffffffffffffffffffffffffffffffffff1673ffffffffffffffffffffffffffffffffffffffff16638da5cb5b6000604051602001526040518163ffffffff167c0100000000000000000000000000000000000000000000000000000000028152600401602060405180830381600087803b1515610f0157600080fd5b6102c65a03f11515610f1257600080fd5b5050506040518051905085846000604051602001526040518463ffffffff167c0100000000000000000000000000000000000000000000000000000000028152600401808473ffffffffffffffffffffffffffffffffffffffff1673ffffffffffffffffffffffffffffffffffffffff1681526020018373ffffffffffffffffffffffffffffffffffffffff1673ffffffffffffffffffffffffffffffffffffffff1681526020018281526020019350505050602060405180830381600087803b1515610fde57600080fd5b6102c65a03f11515610fef57600080fd5b50505060405180519050151561100457600080fd5b61105682600c60008673ffffffffffffffffffffffffffffffffffffffff1673ffffffffffffffffffffffffffffffffffffffff16815260200190815260200160002054610a8590919063ffffffff16565b600c60008573ffffffffffffffffffffffffffffffffffffffff1673ffffffffffffffffffffffffffffffffffffffff168152602001908152602001600020819055506110ae82600854610a8590919063ffffffff16565b6008819055507fe842aea7a5f1b01049d752008c53c52890b1a6daf660cf39e8eec506112bbdf683836001604051808473ffffffffffffffffffffffffffffffffffffffff1673ffffffffffffffffffffffffffffffffffffffff16815260200183815260200182151515158152602001935050505060405180910390a1611134610ade565b61113c610baf565b6000600b60006101000a81548160ff021916908315150217905550505050565b600a5481565b60075481565b6000809054906101000a900473ffffffffffffffffffffffffffffffffffffffff1673ffffffffffffffffffffffffffffffffffffffff163373ffffffffffffffffffffffffffffffffffffffff161415156111c357600080fd5b61138881101580156111d75750614e208111155b15156111e257600080fd5b80600a8190555050565b600160009054906101000a900473ffffffffffffffffffffffffffffffffffffffff1681565b6000809054906101000a900473ffffffffffffffffffffffffffffffffffffffff1673ffffffffffffffffffffffffffffffffffffffff163373ffffffffffffffffffffffffffffffffffffffff1614151561126d57600080fd5b600060149054906101000a900460ff16151561128857600080fd5b60008060146101000a81548160ff0219169083151502179055507f7805862f689e2f13df9f062ff482ad3ad112aca9e0847911ed832e158c525b3360405160405180910390a1565b600060149054906101000a900460ff1681565b600b60019054906101000a900473ffffffffffffffffffffffffffffffffffffffff1681565b600c6020528060005260406000206000915090505481565b60008060009054906101000a900473ffffffffffffffffffffffffffffffffffffffff1673ffffffffffffffffffffffffffffffffffffffff163373ffffffffffffffffffffffffffffffffffffffff1614151561137e57600080fd5b600b60009054906101000a900460ff1615151561139a57600080fd5b6001600b60006101000a81548160ff021916908315150217905550600560009054906101000a900460ff1615156113d057600080fd5b3073ffffffffffffffffffffffffffffffffffffffff16319050600160009054906101000a900473ffffffffffffffffffffffffffffffffffffffff1673ffffffffffffffffffffffffffffffffffffffff166108fc829081150290604051600060405180830381858888f19350505050151561144c57600080fd5b7fe842aea7a5f1b01049d752008c53c52890b1a6daf660cf39e8eec506112bbdf6600160009054906101000a900473ffffffffffffffffffffffffffffffffffffffff16826000604051808473ffffffffffffffffffffffffffffffffffffffff1673ffffffffffffffffffffffffffffffffffffffff16815260200183815260200182151515158152602001935050505060405180910390a16000600b60006101000a81548160ff02191690831515021790555050565b60065481565b6000809054906101000a900473ffffffffffffffffffffffffffffffffffffffff1673ffffffffffffffffffffffffffffffffffffffff163373ffffffffffffffffffffffffffffffffffffffff1614151561156557600080fd5b7f73e3ad81d039090d739c7409dabe6338d59c1e12c615fbf5c77a0500ac870d15607b82604051808381526020018281526020019250505060405180910390a180600d8190555050565b60025481565b60085481565b6000809054906101000a900473ffffffffffffffffffffffffffffffffffffffff1673ffffffffffffffffffffffffffffffffffffffff163373ffffffffffffffffffffffffffffffffffffffff1614151561161657600080fd5b600060149054906101000a900460ff1615151561163257600080fd5b6001600060146101000a81548160ff0219169083151502179055507f6985a02210a168e66602d3235cb6db0e70f92b3ba4d376a33c0f3d9434bff62560405160405180910390a1565b600560019054906101000a900460ff1681565b6000809054906101000a900473ffffffffffffffffffffffffffffffffffffffff1681565b60045481565b60095481565b600d5481565b600560029054906101000a900460ff1681565b600560009054906101000a900460ff1681565b60035481565b61138881565b614e2081565b6000809054906101000a900473ffffffffffffffffffffffffffffffffffffffff1673ffffffffffffffffffffffffffffffffffffffff163373ffffffffffffffffffffffffffffffffffffffff1614151561175857600080fd5b600073ffffffffffffffffffffffffffffffffffffffff168173ffffffffffffffffffffffffffffffffffffffff161415151561179457600080fd5b8073ffffffffffffffffffffffffffffffffffffffff166000809054906101000a900473ffffffffffffffffffffffffffffffffffffffff1673ffffffffffffffffffffffffffffffffffffffff167f8be0079c531659141344cd1fd0a4f28419497f9722a3daafe3b4186f6b6457e060405160405180910390a3806000806101000a81548173ffffffffffffffffffffffffffffffffffffffff021916908373ffffffffffffffffffffffffffffffffffffffff16021790555050565b600060075461185f610a7b565b1015151561186c57600080fd5b600b60009054906101000a900460ff1615151561188857600080fd5b6001600b60006101000a81548160ff021916908315150217905550600560009054906101000a900460ff161515611a1e57600c60003373ffffffffffffffffffffffffffffffffffffffff1673ffffffffffffffffffffffffffffffffffffffff1681526020019081526020016000205490506000600c60003373ffffffffffffffffffffffffffffffffffffffff1673ffffffffffffffffffffffffffffffffffffffff168152602001908152602001600020819055506000811115611a1d573373ffffffffffffffffffffffffffffffffffffffff166108fc829081150290604051600060405180830381858888f19350505050151561198957600080fd5b7fe842aea7a5f1b01049d752008c53c52890b1a6daf660cf39e8eec506112bbdf633826000604051808473ffffffffffffffffffffffffffffffffffffffff1673ffffffffffffffffffffffffffffffffffffffff16815260200183815260200182151515158152602001935050505060405180910390a1611a1681600954610a8590919063ffffffff16565b6009819055505b5b6000600b60006101000a81548160ff021916908315150217905550505600a165627a7a723058206376ae30ff1b96421044951a1557fa5d9e94346117fd67fdc0082c0ec273e21f0029",
  "source": "// Quantstamp Technologies Inc. (info@quantstamp.com)\r\n\r\npragma solidity ^0.4.17;\r\n\r\nimport '../GDPRCashSale.sol';\r\n\r\n/**\r\n * The QuantstampSale smart contract is used for selling QuantstampToken\r\n * tokens (QSP). It does so by converting ETH received into a quantity of\r\n * tokens that are transferred to the contributor via the ERC20-compatible\r\n * transferFrom() function.\r\n */\r\ncontract GDPRCashSaleMock is GDPRCashSale {\r\n\r\n    uint public _now;\r\n\r\n    function GDPRCashSaleMock(\r\n        address ifSuccessfulSendTo,\r\n        uint fundingGoalInEthers,\r\n        uint fundingCapInEthers,\r\n        uint minimumContributionInWei,\r\n        uint start,\r\n        uint durationInMinutes,\r\n        uint rateQspToEther,\r\n        address addressOfTokenUsedAsReward\r\n    ) GDPRCashSale(ifSuccessfulSendTo, fundingGoalInEthers, fundingCapInEthers,\r\n                     minimumContributionInWei, start, durationInMinutes, rateQspToEther,\r\n                     addressOfTokenUsedAsReward) { \r\n        _now = start + 1;\r\n    }\r\n\r\n    function currentTime() internal constant returns (uint) {\r\n        return _now;\r\n    }\r\n\r\n    event HitLine(uint key, uint val);\r\n\r\n    function changeTime(uint _newTime) onlyOwner external {\r\n        HitLine(123, _newTime);\r\n        _now = _newTime;\r\n    }\r\n}\r\n",
  "sourcePath": "D:\\Projects\\gdpr-cash\\gdpr-token-sale\\contracts\\helpers\\GDPRCashSaleMock.sol",
  "compiler": {
    "name": "solc",
    "version": "0.4.18+commit.9cf6e910.Emscripten.clang"
  },
  "schemaVersion": "1.0.1",
  "updatedAt": "2018-01-24T20:59:39.701Z"
}