{
  "contractName": "GDPRCashSale",
  "abi": [
    {
      "constant": false,
      "inputs": [],
      "name": "terminate",
      "outputs": [],
      "payable": false,
      "stateMutability": "nonpayable",
      "type": "function"
    },
    {
      "constant": false,
      "inputs": [],
      "name": "ownerUnlockFund",
      "outputs": [],
      "payable": false,
      "stateMutability": "nonpayable",
      "type": "function"
    },
    {
      "constant": false,
      "inputs": [
        {
          "name": "_to",
          "type": "address"
        },
        {
          "name": "amountWei",
          "type": "uint256"
        },
        {
          "name": "amountMiniGDPR",
          "type": "uint256"
        }
      ],
      "name": "ownerAllocateTokens",
      "outputs": [],
      "payable": false,
      "stateMutability": "nonpayable",
      "type": "function"
    },
    {
      "constant": true,
      "inputs": [],
      "name": "rate",
      "outputs": [
        {
          "name": "",
          "type": "uint256"
        }
      ],
      "payable": false,
      "stateMutability": "view",
      "type": "function"
    },
    {
      "constant": true,
      "inputs": [],
      "name": "endTime",
      "outputs": [
        {
          "name": "",
          "type": "uint256"
        }
      ],
      "payable": false,
      "stateMutability": "view",
      "type": "function"
    },
    {
      "constant": false,
      "inputs": [
        {
          "name": "_rate",
          "type": "uint256"
        }
      ],
      "name": "setRate",
      "outputs": [],
      "payable": false,
      "stateMutability": "nonpayable",
      "type": "function"
    },
    {
      "constant": true,
      "inputs": [],
      "name": "beneficiary",
      "outputs": [
        {
          "name": "",
          "type": "address"
        }
      ],
      "payable": false,
      "stateMutability": "view",
      "type": "function"
    },
    {
      "constant": false,
      "inputs": [],
      "name": "unpause",
      "outputs": [],
      "payable": false,
      "stateMutability": "nonpayable",
      "type": "function"
    },
    {
      "constant": true,
      "inputs": [],
      "name": "paused",
      "outputs": [
        {
          "name": "",
          "type": "bool"
        }
      ],
      "payable": false,
      "stateMutability": "view",
      "type": "function"
    },
    {
      "constant": true,
      "inputs": [],
      "name": "tokenReward",
      "outputs": [
        {
          "name": "",
          "type": "address"
        }
      ],
      "payable": false,
      "stateMutability": "view",
      "type": "function"
    },
    {
      "constant": true,
      "inputs": [
        {
          "name": "",
          "type": "address"
        }
      ],
      "name": "balanceOf",
      "outputs": [
        {
          "name": "",
          "type": "uint256"
        }
      ],
      "payable": false,
      "stateMutability": "view",
      "type": "function"
    },
    {
      "constant": false,
      "inputs": [],
      "name": "ownerSafeWithdrawal",
      "outputs": [],
      "payable": false,
      "stateMutability": "nonpayable",
      "type": "function"
    },
    {
      "constant": true,
      "inputs": [],
      "name": "startTime",
      "outputs": [
        {
          "name": "",
          "type": "uint256"
        }
      ],
      "payable": false,
      "stateMutability": "view",
      "type": "function"
    },
    {
      "constant": true,
      "inputs": [],
      "name": "fundingGoal",
      "outputs": [
        {
          "name": "",
          "type": "uint256"
        }
      ],
      "payable": false,
      "stateMutability": "view",
      "type": "function"
    },
    {
      "constant": true,
      "inputs": [],
      "name": "amountRaised",
      "outputs": [
        {
          "name": "",
          "type": "uint256"
        }
      ],
      "payable": false,
      "stateMutability": "view",
      "type": "function"
    },
    {
      "constant": false,
      "inputs": [],
      "name": "pause",
      "outputs": [],
      "payable": false,
      "stateMutability": "nonpayable",
      "type": "function"
    },
    {
      "constant": true,
      "inputs": [],
      "name": "fundingCapReached",
      "outputs": [
        {
          "name": "",
          "type": "bool"
        }
      ],
      "payable": false,
      "stateMutability": "view",
      "type": "function"
    },
    {
      "constant": true,
      "inputs": [],
      "name": "owner",
      "outputs": [
        {
          "name": "",
          "type": "address"
        }
      ],
      "payable": false,
      "stateMutability": "view",
      "type": "function"
    },
    {
      "constant": true,
      "inputs": [],
      "name": "minContribution",
      "outputs": [
        {
          "name": "",
          "type": "uint256"
        }
      ],
      "payable": false,
      "stateMutability": "view",
      "type": "function"
    },
    {
      "constant": true,
      "inputs": [],
      "name": "refundAmount",
      "outputs": [
        {
          "name": "",
          "type": "uint256"
        }
      ],
      "payable": false,
      "stateMutability": "view",
      "type": "function"
    },
    {
      "constant": true,
      "inputs": [],
      "name": "saleClosed",
      "outputs": [
        {
          "name": "",
          "type": "bool"
        }
      ],
      "payable": false,
      "stateMutability": "view",
      "type": "function"
    },
    {
      "constant": true,
      "inputs": [],
      "name": "fundingGoalReached",
      "outputs": [
        {
          "name": "",
          "type": "bool"
        }
      ],
      "payable": false,
      "stateMutability": "view",
      "type": "function"
    },
    {
      "constant": true,
      "inputs": [],
      "name": "fundingCap",
      "outputs": [
        {
          "name": "",
          "type": "uint256"
        }
      ],
      "payable": false,
      "stateMutability": "view",
      "type": "function"
    },
    {
      "constant": true,
      "inputs": [],
      "name": "LOW_RANGE_RATE",
      "outputs": [
        {
          "name": "",
          "type": "uint256"
        }
      ],
      "payable": false,
      "stateMutability": "view",
      "type": "function"
    },
    {
      "constant": true,
      "inputs": [],
      "name": "HIGH_RANGE_RATE",
      "outputs": [
        {
          "name": "",
          "type": "uint256"
        }
      ],
      "payable": false,
      "stateMutability": "view",
      "type": "function"
    },
    {
      "constant": false,
      "inputs": [
        {
          "name": "newOwner",
          "type": "address"
        }
      ],
      "name": "transferOwnership",
      "outputs": [],
      "payable": false,
      "stateMutability": "nonpayable",
      "type": "function"
    },
    {
      "constant": false,
      "inputs": [],
      "name": "safeWithdrawal",
      "outputs": [],
      "payable": false,
      "stateMutability": "nonpayable",
      "type": "function"
    },
    {
      "inputs": [
        {
          "name": "ifSuccessfulSendTo",
          "type": "address"
        },
        {
          "name": "fundingGoalInEthers",
          "type": "uint256"
        },
        {
          "name": "fundingCapInEthers",
          "type": "uint256"
        },
        {
          "name": "minimumContributionInWei",
          "type": "uint256"
        },
        {
          "name": "start",
          "type": "uint256"
        },
        {
          "name": "durationInMinutes",
          "type": "uint256"
        },
        {
          "name": "rateGDPRToEther",
          "type": "uint256"
        },
        {
          "name": "addressOfTokenUsedAsReward",
          "type": "address"
        }
      ],
      "payable": false,
      "stateMutability": "nonpayable",
      "type": "constructor"
    },
    {
      "payable": true,
      "stateMutability": "payable",
      "type": "fallback"
    },
    {
      "anonymous": false,
      "inputs": [
        {
          "indexed": false,
          "name": "_beneficiary",
          "type": "address"
        },
        {
          "indexed": false,
          "name": "_amountRaised",
          "type": "uint256"
        }
      ],
      "name": "GoalReached",
      "type": "event"
    },
    {
      "anonymous": false,
      "inputs": [
        {
          "indexed": false,
          "name": "_beneficiary",
          "type": "address"
        },
        {
          "indexed": false,
          "name": "_amountRaised",
          "type": "uint256"
        }
      ],
      "name": "CapReached",
      "type": "event"
    },
    {
      "anonymous": false,
      "inputs": [
        {
          "indexed": false,
          "name": "_backer",
          "type": "address"
        },
        {
          "indexed": false,
          "name": "_amount",
          "type": "uint256"
        },
        {
          "indexed": false,
          "name": "_isContribution",
          "type": "bool"
        }
      ],
      "name": "FundTransfer",
      "type": "event"
    },
    {
      "anonymous": false,
      "inputs": [],
      "name": "Pause",
      "type": "event"
    },
    {
      "anonymous": false,
      "inputs": [],
      "name": "Unpause",
      "type": "event"
    },
    {
      "anonymous": false,
      "inputs": [
        {
          "indexed": true,
          "name": "previousOwner",
          "type": "address"
        },
        {
          "indexed": true,
          "name": "newOwner",
          "type": "address"
        }
      ],
      "name": "OwnershipTransferred",
      "type": "event"
    }
  ],
  "bytecode": "0x606060405260008060146101000a81548160ff0219169083151502179055506000600560006101000a81548160ff0219169083151502179055506000600560016101000a81548160ff0219169083151502179055506000600560026101000a81548160ff0219169083151502179055506000600b60006101000a81548160ff02191690831515021790555034156200009657600080fd5b6040516101008062001d1a83398101604052808051906020019091908051906020019091908051906020019091908051906020019091908051906020019091908051906020019091908051906020019091908051906020019091905050336000806101000a81548173ffffffffffffffffffffffffffffffffffffffff021916908373ffffffffffffffffffffffffffffffffffffffff160217905550600073ffffffffffffffffffffffffffffffffffffffff168873ffffffffffffffffffffffffffffffffffffffff16141580156200019d57503073ffffffffffffffffffffffffffffffffffffffff168873ffffffffffffffffffffffffffffffffffffffff1614155b1515620001a957600080fd5b600073ffffffffffffffffffffffffffffffffffffffff168173ffffffffffffffffffffffffffffffffffffffff16141580156200021357503073ffffffffffffffffffffffffffffffffffffffff168173ffffffffffffffffffffffffffffffffffffffff1614155b15156200021f57600080fd5b8587111515156200022f57600080fd5b6000831115156200023f57600080fd5b87600160006101000a81548173ffffffffffffffffffffffffffffffffffffffff021916908373ffffffffffffffffffffffffffffffffffffffff160217905550670de0b6b3a76400008702600281905550670de0b6b3a764000086026003819055508460048190555083600681905550603c83028401600781905550620002db826200032a6401000000000262001104176401000000009004565b80600b60016101000a81548173ffffffffffffffffffffffffffffffffffffffff021916908373ffffffffffffffffffffffffffffffffffffffff1602179055505050505050505050620003b1565b6000809054906101000a900473ffffffffffffffffffffffffffffffffffffffff1673ffffffffffffffffffffffffffffffffffffffff163373ffffffffffffffffffffffffffffffffffffffff161415156200038657600080fd5b61138881101580156200039b5750614e208111155b1515620003a757600080fd5b80600a8190555050565b61195980620003c16000396000f30060606040526004361061015f576000357c0100000000000000000000000000000000000000000000000000000000900463ffffffff1680630c08bf881461055a57806323ec8f621461056f57806328e08186146105845780632c4e722e146105cf5780633197cbb6146105f857806334fcf4371461062157806338af3eed146106445780633f4ba83a146106995780635c975abb146106ae5780636e66f6e9146106db57806370a0823114610730578063782e34c91461077d57806378e97925146107925780637a3a0e84146107bb5780637b3e5e7b146107e45780638456cb591461080d578063848b3821146108225780638da5cb5b1461084f578063aaffadf3146108a4578063ad33513f146108cd578063b8c766b8146108f6578063d424f62814610923578063e3b2594f14610950578063ea87124614610979578063ef35fc16146109a2578063f2fde38b146109cb578063fd6b7ef814610a04575b60008060008060149054906101000a900460ff1615151561017f57600080fd5b60075461018a610a19565b10151561019657600080fd5b6006546101a1610a19565b101515156101ae57600080fd5b600560029054906101000a900460ff161515156101ca57600080fd5b600b60009054906101000a900460ff161515156101e657600080fd5b6001600b60006101000a81548160ff021916908315150217905550600454341015151561021257600080fd5b349250600c60003373ffffffffffffffffffffffffffffffffffffffff1673ffffffffffffffffffffffffffffffffffffffff16815260200190815260200160002054915061026a8383610a2190919063ffffffff16565b600c60003373ffffffffffffffffffffffffffffffffffffffff1673ffffffffffffffffffffffffffffffffffffffff168152602001908152602001600020819055506102c283600854610a2190919063ffffffff16565b6008819055506102dd600a5484610a3f90919063ffffffff16565b9050600b60019054906101000a900473ffffffffffffffffffffffffffffffffffffffff1673ffffffffffffffffffffffffffffffffffffffff166323b872dd600b60019054906101000a900473ffffffffffffffffffffffffffffffffffffffff1673ffffffffffffffffffffffffffffffffffffffff16638da5cb5b6000604051602001526040518163ffffffff167c0100000000000000000000000000000000000000000000000000000000028152600401602060405180830381600087803b15156103ab57600080fd5b6102c65a03f115156103bc57600080fd5b5050506040518051905033846000604051602001526040518463ffffffff167c0100000000000000000000000000000000000000000000000000000000028152600401808473ffffffffffffffffffffffffffffffffffffffff1673ffffffffffffffffffffffffffffffffffffffff1681526020018373ffffffffffffffffffffffffffffffffffffffff1673ffffffffffffffffffffffffffffffffffffffff1681526020018281526020019350505050602060405180830381600087803b151561048857600080fd5b6102c65a03f1151561049957600080fd5b5050506040518051905015610535577fe842aea7a5f1b01049d752008c53c52890b1a6daf660cf39e8eec506112bbdf633846001604051808473ffffffffffffffffffffffffffffffffffffffff1673ffffffffffffffffffffffffffffffffffffffff16815260200183815260200182151515158152602001935050505060405180910390a1610528610a7a565b610530610b4b565b61053a565b600080fd5b6000600b60006101000a81548160ff021916908315150217905550505050005b341561056557600080fd5b61056d610c37565b005b341561057a57600080fd5b610582610caf565b005b341561058f57600080fd5b6105cd600480803573ffffffffffffffffffffffffffffffffffffffff16906020019091908035906020019091908035906020019091905050610d3f565b005b34156105da57600080fd5b6105e26110f8565b6040518082815260200191505060405180910390f35b341561060357600080fd5b61060b6110fe565b6040518082815260200191505060405180910390f35b341561062c57600080fd5b6106426004808035906020019091905050611104565b005b341561064f57600080fd5b610657611188565b604051808273ffffffffffffffffffffffffffffffffffffffff1673ffffffffffffffffffffffffffffffffffffffff16815260200191505060405180910390f35b34156106a457600080fd5b6106ac6111ae565b005b34156106b957600080fd5b6106c161126c565b604051808215151515815260200191505060405180910390f35b34156106e657600080fd5b6106ee61127f565b604051808273ffffffffffffffffffffffffffffffffffffffff1673ffffffffffffffffffffffffffffffffffffffff16815260200191505060405180910390f35b341561073b57600080fd5b610767600480803573ffffffffffffffffffffffffffffffffffffffff169060200190919050506112a5565b6040518082815260200191505060405180910390f35b341561078857600080fd5b6107906112bd565b005b341561079d57600080fd5b6107a56114a0565b6040518082815260200191505060405180910390f35b34156107c657600080fd5b6107ce6114a6565b6040518082815260200191505060405180910390f35b34156107ef57600080fd5b6107f76114ac565b6040518082815260200191505060405180910390f35b341561081857600080fd5b6108206114b2565b005b341561082d57600080fd5b610835611572565b604051808215151515815260200191505060405180910390f35b341561085a57600080fd5b610862611585565b604051808273ffffffffffffffffffffffffffffffffffffffff1673ffffffffffffffffffffffffffffffffffffffff16815260200191505060405180910390f35b34156108af57600080fd5b6108b76115aa565b6040518082815260200191505060405180910390f35b34156108d857600080fd5b6108e06115b0565b6040518082815260200191505060405180910390f35b341561090157600080fd5b6109096115b6565b604051808215151515815260200191505060405180910390f35b341561092e57600080fd5b6109366115c9565b604051808215151515815260200191505060405180910390f35b341561095b57600080fd5b6109636115dc565b6040518082815260200191505060405180910390f35b341561098457600080fd5b61098c6115e2565b6040518082815260200191505060405180910390f35b34156109ad57600080fd5b6109b56115e8565b6040518082815260200191505060405180910390f35b34156109d657600080fd5b610a02600480803573ffffffffffffffffffffffffffffffffffffffff169060200190919050506115ee565b005b3415610a0f57600080fd5b610a17611743565b005b600042905090565b6000808284019050838110151515610a3557fe5b8091505092915050565b6000806000841415610a545760009150610a73565b8284029050828482811515610a6557fe5b04141515610a6f57fe5b8091505b5092915050565b600560009054906101000a900460ff161515610b4957600254600854101515610b48576001600560006101000a81548160ff0219169083151502179055507fec3f991caf7857d61663fd1bba1739e04abd4781238508cde554bb849d790c85600160009054906101000a900473ffffffffffffffffffffffffffffffffffffffff16600854604051808373ffffffffffffffffffffffffffffffffffffffff1673ffffffffffffffffffffffffffffffffffffffff1681526020018281526020019250505060405180910390a15b5b565b600560019054906101000a900460ff161515610c3557600354600854101515610c34576001600560016101000a81548160ff0219169083151502179055506001600560026101000a81548160ff0219169083151502179055507f195de8a1ebf5a1244af169b7e0bd0f735307a2626a73abce88f9b488628c6c24600160009054906101000a900473ffffffffffffffffffffffffffffffffffffffff16600854604051808373ffffffffffffffffffffffffffffffffffffffff1673ffffffffffffffffffffffffffffffffffffffff1681526020018281526020019250505060405180910390a15b5b565b6000809054906101000a900473ffffffffffffffffffffffffffffffffffffffff1673ffffffffffffffffffffffffffffffffffffffff163373ffffffffffffffffffffffffffffffffffffffff16141515610c9257600080fd5b6001600560026101000a81548160ff021916908315150217905550565b600754610cba610a19565b10151515610cc757600080fd5b6000809054906101000a900473ffffffffffffffffffffffffffffffffffffffff1673ffffffffffffffffffffffffffffffffffffffff163373ffffffffffffffffffffffffffffffffffffffff16141515610d2257600080fd5b6000600560006101000a81548160ff021916908315150217905550565b6000809054906101000a900473ffffffffffffffffffffffffffffffffffffffff1673ffffffffffffffffffffffffffffffffffffffff163373ffffffffffffffffffffffffffffffffffffffff16141515610d9a57600080fd5b600b60009054906101000a900460ff16151515610db657600080fd5b6001600b60006101000a81548160ff021916908315150217905550600b60019054906101000a900473ffffffffffffffffffffffffffffffffffffffff1673ffffffffffffffffffffffffffffffffffffffff166323b872dd600b60019054906101000a900473ffffffffffffffffffffffffffffffffffffffff1673ffffffffffffffffffffffffffffffffffffffff16638da5cb5b6000604051602001526040518163ffffffff167c0100000000000000000000000000000000000000000000000000000000028152600401602060405180830381600087803b1515610e9d57600080fd5b6102c65a03f11515610eae57600080fd5b5050506040518051905085846000604051602001526040518463ffffffff167c0100000000000000000000000000000000000000000000000000000000028152600401808473ffffffffffffffffffffffffffffffffffffffff1673ffffffffffffffffffffffffffffffffffffffff1681526020018373ffffffffffffffffffffffffffffffffffffffff1673ffffffffffffffffffffffffffffffffffffffff1681526020018281526020019350505050602060405180830381600087803b1515610f7a57600080fd5b6102c65a03f11515610f8b57600080fd5b505050604051805190501515610fa057600080fd5b610ff282600c60008673ffffffffffffffffffffffffffffffffffffffff1673ffffffffffffffffffffffffffffffffffffffff16815260200190815260200160002054610a2190919063ffffffff16565b600c60008573ffffffffffffffffffffffffffffffffffffffff1673ffffffffffffffffffffffffffffffffffffffff1681526020019081526020016000208190555061104a82600854610a2190919063ffffffff16565b6008819055507fe842aea7a5f1b01049d752008c53c52890b1a6daf660cf39e8eec506112bbdf683836001604051808473ffffffffffffffffffffffffffffffffffffffff1673ffffffffffffffffffffffffffffffffffffffff16815260200183815260200182151515158152602001935050505060405180910390a16110d0610a7a565b6110d8610b4b565b6000600b60006101000a81548160ff021916908315150217905550505050565b600a5481565b60075481565b6000809054906101000a900473ffffffffffffffffffffffffffffffffffffffff1673ffffffffffffffffffffffffffffffffffffffff163373ffffffffffffffffffffffffffffffffffffffff1614151561115f57600080fd5b61138881101580156111735750614e208111155b151561117e57600080fd5b80600a8190555050565b600160009054906101000a900473ffffffffffffffffffffffffffffffffffffffff1681565b6000809054906101000a900473ffffffffffffffffffffffffffffffffffffffff1673ffffffffffffffffffffffffffffffffffffffff163373ffffffffffffffffffffffffffffffffffffffff1614151561120957600080fd5b600060149054906101000a900460ff16151561122457600080fd5b60008060146101000a81548160ff0219169083151502179055507f7805862f689e2f13df9f062ff482ad3ad112aca9e0847911ed832e158c525b3360405160405180910390a1565b600060149054906101000a900460ff1681565b600b60019054906101000a900473ffffffffffffffffffffffffffffffffffffffff1681565b600c6020528060005260406000206000915090505481565b60008060009054906101000a900473ffffffffffffffffffffffffffffffffffffffff1673ffffffffffffffffffffffffffffffffffffffff163373ffffffffffffffffffffffffffffffffffffffff1614151561131a57600080fd5b600b60009054906101000a900460ff1615151561133657600080fd5b6001600b60006101000a81548160ff021916908315150217905550600560009054906101000a900460ff16151561136c57600080fd5b3073ffffffffffffffffffffffffffffffffffffffff16319050600160009054906101000a900473ffffffffffffffffffffffffffffffffffffffff1673ffffffffffffffffffffffffffffffffffffffff166108fc829081150290604051600060405180830381858888f1935050505015156113e857600080fd5b7fe842aea7a5f1b01049d752008c53c52890b1a6daf660cf39e8eec506112bbdf6600160009054906101000a900473ffffffffffffffffffffffffffffffffffffffff16826000604051808473ffffffffffffffffffffffffffffffffffffffff1673ffffffffffffffffffffffffffffffffffffffff16815260200183815260200182151515158152602001935050505060405180910390a16000600b60006101000a81548160ff02191690831515021790555050565b60065481565b60025481565b60085481565b6000809054906101000a900473ffffffffffffffffffffffffffffffffffffffff1673ffffffffffffffffffffffffffffffffffffffff163373ffffffffffffffffffffffffffffffffffffffff1614151561150d57600080fd5b600060149054906101000a900460ff1615151561152957600080fd5b6001600060146101000a81548160ff0219169083151502179055507f6985a02210a168e66602d3235cb6db0e70f92b3ba4d376a33c0f3d9434bff62560405160405180910390a1565b600560019054906101000a900460ff1681565b6000809054906101000a900473ffffffffffffffffffffffffffffffffffffffff1681565b60045481565b60095481565b600560029054906101000a900460ff1681565b600560009054906101000a900460ff1681565b60035481565b61138881565b614e2081565b6000809054906101000a900473ffffffffffffffffffffffffffffffffffffffff1673ffffffffffffffffffffffffffffffffffffffff163373ffffffffffffffffffffffffffffffffffffffff1614151561164957600080fd5b600073ffffffffffffffffffffffffffffffffffffffff168173ffffffffffffffffffffffffffffffffffffffff161415151561168557600080fd5b8073ffffffffffffffffffffffffffffffffffffffff166000809054906101000a900473ffffffffffffffffffffffffffffffffffffffff1673ffffffffffffffffffffffffffffffffffffffff167f8be0079c531659141344cd1fd0a4f28419497f9722a3daafe3b4186f6b6457e060405160405180910390a3806000806101000a81548173ffffffffffffffffffffffffffffffffffffffff021916908373ffffffffffffffffffffffffffffffffffffffff16021790555050565b6000600754611750610a19565b1015151561175d57600080fd5b600b60009054906101000a900460ff1615151561177957600080fd5b6001600b60006101000a81548160ff021916908315150217905550600560009054906101000a900460ff16151561190f57600c60003373ffffffffffffffffffffffffffffffffffffffff1673ffffffffffffffffffffffffffffffffffffffff1681526020019081526020016000205490506000600c60003373ffffffffffffffffffffffffffffffffffffffff1673ffffffffffffffffffffffffffffffffffffffff16815260200190815260200160002081905550600081111561190e573373ffffffffffffffffffffffffffffffffffffffff166108fc829081150290604051600060405180830381858888f19350505050151561187a57600080fd5b7fe842aea7a5f1b01049d752008c53c52890b1a6daf660cf39e8eec506112bbdf633826000604051808473ffffffffffffffffffffffffffffffffffffffff1673ffffffffffffffffffffffffffffffffffffffff16815260200183815260200182151515158152602001935050505060405180910390a161190781600954610a2190919063ffffffff16565b6009819055505b5b6000600b60006101000a81548160ff021916908315150217905550505600a165627a7a7230582070aaab53751f59d7a2a32e4f938b2a937c6d22bf8037efb3e28010b3e0a8f7690029",
  "source": "// Quantstamp Technologies Inc. (info@quantstamp.com)\r\n\r\npragma solidity ^0.4.17;\r\n\r\nimport './lifecycle/Pausable.sol';\r\nimport './math/SafeMath.sol';\r\nimport './GDPRCash.sol';\r\n\r\n/**\r\n * The QuantstampSale smart contract is used for selling QuantstampToken\r\n * tokens (GDPR). It does so by converting ETH received into a quantity of\r\n * tokens that are transferred to the contributor via the ERC20-compatible\r\n * transferFrom() function.\r\n */\r\ncontract GDPRCashSale is Pausable {\r\n\r\n    using SafeMath for uint256;\r\n\r\n    // The beneficiary is the future recipient of the funds\r\n    address public beneficiary;\r\n\r\n    // The crowdsale has a funding goal, cap, deadline, and minimum contribution\r\n    uint public fundingGoal;\r\n    uint public fundingCap;\r\n    uint public minContribution;\r\n    bool public fundingGoalReached = false;\r\n    bool public fundingCapReached = false;\r\n    bool public saleClosed = false;\r\n\r\n    // Time period of sale (UNIX timestamps)\r\n    uint public startTime;\r\n    uint public endTime;\r\n\r\n    // Keeps track of the amount of wei raised\r\n    uint public amountRaised;\r\n\r\n    // Refund amount, should it be required\r\n    uint public refundAmount;\r\n\r\n    // The ratio of GDPR to Ether\r\n    uint public rate;\r\n    uint public constant LOW_RANGE_RATE = 5000;\r\n    uint public constant HIGH_RANGE_RATE = 20000;\r\n\r\n    // prevent certain functions from being recursively called\r\n    bool private rentrancy_lock = false;\r\n\r\n    // The token being sold\r\n    GDPRCash public tokenReward;\r\n\r\n    // A map that tracks the amount of wei contributed by address\r\n    mapping(address => uint256) public balanceOf;\r\n\r\n    // Events\r\n    event GoalReached(address _beneficiary, uint _amountRaised);\r\n    event CapReached(address _beneficiary, uint _amountRaised);\r\n    event FundTransfer(address _backer, uint _amount, bool _isContribution);\r\n\r\n    // Modifiers\r\n    modifier beforeDeadline() { \r\n        require(currentTime() < endTime); \r\n        _; \r\n    }\r\n\r\n    modifier afterDeadline() { \r\n        require(currentTime() >= endTime); \r\n        _;\r\n    }\r\n\r\n    modifier afterStartTime() { \r\n        require(currentTime() >= startTime); \r\n        _; \r\n    }\r\n\r\n    modifier saleNotClosed() { \r\n        require (!saleClosed); \r\n        _; \r\n    }\r\n\r\n    modifier nonReentrant() {\r\n        require(!rentrancy_lock);\r\n        rentrancy_lock = true;\r\n        _;\r\n        rentrancy_lock = false;\r\n    }\r\n\r\n    /**\r\n     * Constructor for a crowdsale of GDPR Cash tokens.\r\n     *\r\n     * @param ifSuccessfulSendTo            the beneficiary of the fund\r\n     * @param fundingGoalInEthers           the minimum goal to be reached\r\n     * @param fundingCapInEthers            the cap (maximum) size of the fund\r\n     * @param minimumContributionInWei      minimum contribution (in wei)\r\n     * @param start                         the start time (UNIX timestamp)\r\n     * @param durationInMinutes             the duration of the crowdsale in minutes\r\n     * @param rateGDPRToEther                the conversion rate from GDPR to Ether\r\n     * @param addressOfTokenUsedAsReward    address of the token being sold\r\n     */\r\n    function GDPRCashSale(\r\n        address ifSuccessfulSendTo,\r\n        uint fundingGoalInEthers,\r\n        uint fundingCapInEthers,\r\n        uint minimumContributionInWei,\r\n        uint start,\r\n        uint durationInMinutes,\r\n        uint rateGDPRToEther,\r\n        address addressOfTokenUsedAsReward\r\n    ) public {\r\n        require(ifSuccessfulSendTo != address(0) && ifSuccessfulSendTo != address(this));\r\n        require(addressOfTokenUsedAsReward != address(0) && addressOfTokenUsedAsReward != address(this));\r\n        require(fundingGoalInEthers <= fundingCapInEthers);\r\n        require(durationInMinutes > 0);\r\n        beneficiary = ifSuccessfulSendTo;\r\n        fundingGoal = fundingGoalInEthers * 1 ether;\r\n        fundingCap = fundingCapInEthers * 1 ether;\r\n        minContribution = minimumContributionInWei;\r\n        startTime = start;\r\n        endTime = start + durationInMinutes * 1 minutes; // TODO double check\r\n        setRate(rateGDPRToEther);\r\n        tokenReward = GDPRCash(addressOfTokenUsedAsReward);\r\n    }\r\n\r\n    /**\r\n     * This fallback function is called whenever Ether is sent to the\r\n     * smart contract. It can only be executed when the crowdsale is\r\n     * not paused, not closed, and before the deadline has been reached.\r\n     *\r\n     * This function will update state variables for whether or not the\r\n     * funding goal or cap have been reached. It also ensures that the\r\n     * tokens are transferred to the sender, and that the correct\r\n     * number of tokens are sent according to the current rate.\r\n     */\r\n    function () public payable whenNotPaused beforeDeadline afterStartTime saleNotClosed nonReentrant {\r\n        require(msg.value >= minContribution);\r\n\r\n        // Update the sender's balance of wei contributed and the amount raised\r\n        uint amount = msg.value;\r\n        uint currentBalance = balanceOf[msg.sender];\r\n        balanceOf[msg.sender] = currentBalance.add(amount);\r\n        amountRaised = amountRaised.add(amount);\r\n\r\n        // Compute the number of tokens to be rewarded to the sender\r\n        // Note: it's important for this calculation that both wei\r\n        // and GDPR have the same number of decimal places (18)\r\n        uint numTokens = amount.mul(rate);\r\n\r\n        // Transfer the tokens from the crowdsale supply to the sender\r\n        if (tokenReward.transferFrom(tokenReward.owner(), msg.sender, numTokens)) {\r\n            FundTransfer(msg.sender, amount, true);\r\n            // Check if the funding goal or cap have been reached\r\n            // TODO check impact on gas cost\r\n            checkFundingGoal();\r\n            checkFundingCap();\r\n        } else {\r\n            revert();\r\n        }\r\n    }\r\n\r\n    /**\r\n     * The owner can terminate the crowdsale at any time.\r\n     */\r\n    function terminate() external onlyOwner {\r\n        saleClosed = true;\r\n    }\r\n\r\n    /**\r\n     * The owner can update the rate (GDPR to ETH).\r\n     *\r\n     * @param _rate  the new rate for converting GDPR to ETH\r\n     */\r\n    function setRate(uint _rate) public onlyOwner {\r\n        require(_rate >= LOW_RANGE_RATE && _rate <= HIGH_RANGE_RATE);\r\n        rate = _rate;\r\n    }\r\n\r\n    /**\r\n     * The owner can allocate the specified amount of tokens from the\r\n     * crowdsale allowance to the recipient (_to).\r\n     *\r\n     * NOTE: be extremely careful to get the amounts correct, which\r\n     * are in units of wei and mini-GDPR. Every digit counts.\r\n     *\r\n     * @param _to            the recipient of the tokens\r\n     * @param amountWei     the amount contributed in wei\r\n     * @param amountMiniGDPR the amount of tokens transferred in mini-GDPR\r\n     */\r\n    function ownerAllocateTokens(address _to, uint amountWei, uint amountMiniGDPR) external onlyOwner nonReentrant {\r\n        if (!tokenReward.transferFrom(tokenReward.owner(), _to, amountMiniGDPR)) {\r\n            revert();\r\n        }\r\n        balanceOf[_to] = balanceOf[_to].add(amountWei);\r\n        amountRaised = amountRaised.add(amountWei);\r\n        FundTransfer(_to, amountWei, true);\r\n        checkFundingGoal();\r\n        checkFundingCap();\r\n    }\r\n\r\n    /**\r\n     * The owner can call this function to withdraw the funds that\r\n     * have been sent to this contract for the crowdsale subject to\r\n     * the funding goal having been reached. The funds will be sent\r\n     * to the beneficiary specified when the crowdsale was created.\r\n     */\r\n    function ownerSafeWithdrawal() external onlyOwner nonReentrant {\r\n        require(fundingGoalReached);\r\n        uint balanceToSend = this.balance;\r\n        beneficiary.transfer(balanceToSend);\r\n        FundTransfer(beneficiary, balanceToSend, false);\r\n    }\r\n\r\n    /**\r\n     * The owner can unlock the fund with this function. The use-\r\n     * case for this is when the owner decides after the deadline\r\n     * to allow contributors to be refunded their contributions.\r\n     * Note that the fund would be automatically unlocked if the\r\n     * minimum funding goal were not reached.\r\n     */\r\n    function ownerUnlockFund() external afterDeadline onlyOwner {\r\n        fundingGoalReached = false;\r\n    }\r\n\r\n    /**\r\n     * This function permits anybody to withdraw the funds they have\r\n     * contributed if and only if the deadline has passed and the\r\n     * funding goal was not reached.\r\n     */\r\n    function safeWithdrawal() external afterDeadline nonReentrant {\r\n        if (!fundingGoalReached) {\r\n            uint amount = balanceOf[msg.sender];\r\n            balanceOf[msg.sender] = 0;\r\n            if (amount > 0) {\r\n                msg.sender.transfer(amount);\r\n                FundTransfer(msg.sender, amount, false);\r\n                refundAmount = refundAmount.add(amount);\r\n            }\r\n        }\r\n    }\r\n\r\n    /**\r\n     * Checks if the funding goal has been reached. If it has, then\r\n     * the GoalReached event is triggered.\r\n     */\r\n    function checkFundingGoal() internal {\r\n        if (!fundingGoalReached) {\r\n            if (amountRaised >= fundingGoal) {\r\n                fundingGoalReached = true;\r\n                GoalReached(beneficiary, amountRaised);\r\n            }\r\n        }\r\n    }\r\n\r\n    /**\r\n     * Checks if the funding cap has been reached. If it has, then\r\n     * the CapReached event is triggered.\r\n     */\r\n    function checkFundingCap() internal {\r\n        if (!fundingCapReached) {\r\n            if (amountRaised >= fundingCap) {\r\n                fundingCapReached = true;\r\n                saleClosed = true;\r\n                CapReached(beneficiary, amountRaised);\r\n            }\r\n        }\r\n    }\r\n\r\n    /**\r\n     * Returns the current time.\r\n     * Useful to abstract calls to \"now\" for tests.\r\n    */\r\n    function currentTime() internal constant returns (uint _currentTime) {\r\n        return now;\r\n    }\r\n\r\n\r\n    /**\r\n     * Given an amount in GDPR, this method returns the equivalent amount\r\n     * in mini-GDPR.\r\n     *\r\n     * @param amount    an amount expressed in units of GDPR\r\n     */\r\n    function convertToMiniGDPR(uint amount) internal constant returns (uint) {\r\n        return amount * (10 ** uint(tokenReward.decimals()));\r\n    }\r\n}",
  "sourcePath": "D:\\Projects\\gdpr-cash\\gdpr-token-sale\\contracts\\GDPRCashSale.sol",
  "compiler": {
    "name": "solc",
    "version": "0.4.18+commit.9cf6e910.Emscripten.clang"
  },
  "schemaVersion": "1.0.1",
  "updatedAt": "2018-02-08T15:04:33.649Z"
}